:200000000C943E000C945B000C945B000C945B000C945B000C945B000C945B000C945B0025
:200020000C945B000C945B000C945B000C945B000C945B000C945B000C945B000C945B00E8
:200040000C945B000C945B000C945B000C945B000C945B000C945B000C945B000C945B00C8
:200060000C945B000C945B000C945B000C945B000C945B000C945B000C945B0011241FBE91
:20008000CFEFD0E1DEBFCDBF11E0A0E0B1E0E4E9F9E002C005900D92A030B107D9F722E0D0
:2000A000A0E0B1E001C01D92A730B207E1F70E942F020C94C8040C9400008B3008F08FE056
:2000C00090E0A0E0B0E0072E7EE0880F991FAA1FBB1F7A95D1F7702DBC01CD0161680895B6
:2000E000682F70E080E090E00E94750320E030E040EA50E40E945B0420E030E040E151E45A
:200100000E94D40220E030E040E052E40E9468020E94B2030E944603862F90E0A0E0B0E07E
:20012000072E71E1880F991FAA1FBB1F7A95D1F7702DBC01CD01616C08950DB407FEFDCF4B
:2001400008958DB588B18F7E88B981E08EBD0E949D008EB588B1806188B9089584B18268F4
:2001600084B984B1867E84B987B1806387B984B7877F84BFE0E6F0E080818460808380816E
:20018000807F80838081896280838CB5816D8CBD8CB58D7F8CBD8DB581608DBD0E94A100B0
:2001A0000895CF93C82F88B18F7E88B98DB587E08EBD0E949D008EB5CEBD0E949D008EB53F
:2001C00088B1806188B9CF9108958DB588B18F7E88B98AE08EBD0E949D001EBC0E949D00F1
:2001E0008EB598B1906198B90895CF93DF93C82FD92F88B18F7E88B98DB580E18EBD0E94AA
:200200009D008EB5DEBD0E949D008EB5CEBD0E949D008EB588B1806188B9DF91CF9108950C
:200220001F93CF93DF9310E012C0C12FD0E060968CE3810F0E947000CC0FDD1FCC0FDD1F21
:20024000C95FDE4F688379838A839B831F5F103160F3DF91CF911F9108951F93CF93DF9382
:2002600010E010C0C12FD0E0812F0E945D00CC0FDD1FCC0FDD1FC95FDE4F688379838A8378
:200280009B831F5F103170F3DF91CF911F9108950F931F93CF93DF93082F813208F000E215
:2002A00088B18F7E88B98DB58EE08EBD0E949D008EB510E031C0C12FD0E0CC0FDD1FCC0F07
:2002C000DD1FC95FDE4F88819981AA81BB818B2F9927AA27BB278EBD0E949D008EB5888140
:2002E0009981AA81BB81CD01AA27BB278EBD0E949D008EB588819981AA81BB81892F9A2F24
:20030000AB2FBB278EBD0E949D008EB588818EBD0E949D008EB51F5F101768F288B1806165
:2003200088B9DF91CF911F910F9108954F925F926F927F928F929F92AF92BF92CF92DF9225
:20034000EF92FF928DB588B18F7E88B988E08EBD0E949D001EBC0E949D008EB4912CA12CEB
:20036000B12C782C6624552444241EBC0E949D00CEB4D12CE12CF12C7601DD24CC24460120
:20038000570184289528A628B7281EBC0E949D00CEB4D12CE12CF12CFE2CED2CDC2CCC24F2
:2003A000C828D928EA28FB281EBC0E949D008EB5A7019601282BCA01B90128B1206128B969
:2003C000FF90EF90DF90CF90BF90AF909F908F907F906F905F904F9008950F931F93CF9336
:2003E000DF930E94E5008770823021F0843021F001E003C000E101C000E210E00FC0C12FAE
:20040000D0E00E949601CC0FDD1FCC0FDD1FC957DE4F688379838A839B831F5F101778F3D6
:20042000DF91CF911F910F91089520E015C0822F90E0880F991F880F991FFC01E957FE4FE1
:200440004081518162817381FC01E95FFE4F40835183628373832F5F22234CF70895F894EF
:200460000E94AE0081E00E94D10088E398EE0E94F5000E9410010E942D018EE10E944801F3
:20048000A8958EE10E9448012FEF89E698E1215080409040E1F700C000000E94ED012FEF78
:2004A00089E698E1215080409040E1F700C000000E9415022FEF89E698E1215080409040FB
:2004C000E1F700C0000083B78E7F83BFD9CF5058BB27AA270E947F020C9409040E94FB0388
:2004E00038F00E94020420F039F49F3F19F426F40C94F8030EF4E095E7FB0C94C903E92F72
:200500000E941A0458F3BA17620773078407950720F079F4A6F50C9454040EF4E0950B2E35
:20052000BA2FA02D0B01B90190010C01CA01A0011124FF27591B99F0593F50F4503E68F11A
:200540001A16F040A22F232F342F4427585FF3CF469537952795A795F0405395C9F77EF4E8
:200560001F16BA0B620B730B840BBAF09150A1F0FF0FBB1F661F771F881FC2F70EC0BA0FF1
:20058000621F731F841F48F4879577956795B795F7959E3F08F0B0CF9395880F08F09927A2
:2005A000EE0F9795879508950E94E8020C9409040E94020458F00E94FB0340F029F45F3FA5
:2005C00029F00C94C90351110C9455040C94F8030E941A0468F39923B1F3552391F3951B79
:2005E000550BBB27AA2762177307840738F09F5F5F4F220F331F441FAA1FA9F335D00E2E0A
:200600003AF0E0E832D091505040E695001CCAF72BD0FE2F29D0660F771F881FBB1F261733
:2006200037074807AB07B0E809F0BB0B802DBF01FF2793585F4F3AF09E3F510578F00C9493
:20064000C9030C9455045F3FE4F3983ED4F3869577956795B795F7959F5FC9F7880F911DC5
:200660009695879597F90895E1E0660F771F881FBB1F621773078407BA0720F0621B730B6F
:20068000840BBA0BEE1F88F7E09508950E94220488F09F5798F0B92F9927B751B0F0E1F089
:2006A000660F771F881F991F1AF0BA95C9F714C0B13091F00E945404B1E008950C94540461
:2006C000672F782F8827B85F39F0B93FCCF3869577956795B395D9F73EF49095809570958B
:2006E00061957F4F8F4F9F4F0895E89409C097FB3EF490958095709561957F4F8F4F9F4FF5
:200700009923A9F0F92F96E9BB279395F695879577956795B795F111F8CFFAF4BB0F11F452
:2007200060FF1BC06F5F7F4F8F4F9F4F16C0882311F096E911C0772321F09EE8872F762FB9
:2007400005C0662371F096E8862F70E060E02AF09A95660F771F881FDAF7880F969587957D
:2007600097F908950E943C0490F09F3748F4911116F00C94550460E070E080E89FEB089518
:2007800026F41B16611D711D811D0C94CF030C94EA0397F99F6780E870E060E0089588238F
:2007A00071F4772321F09850872B762F07C0662311F499270DC09051862B70E060E02AF0CC
:2007C0009A95660F771F881FDAF7880F9695879597F908959F3F31F0915020F48795779540
:2007E0006795B795880F911D9695879597F908959FEF80EC089500240A9416161706180638
:200800000906089500240A9412161306140605060895092E0394000C11F4882352F0BB0FD1
:2008200040F4BF2B11F460FF04C06F5F7F4F8F4F9F4F089557FD9058440F551F59F05F3F83
:2008400071F04795880F97FB991F61F09F3F79F087950895121613061406551FF2CF4695BE
:20086000F1DF08C0161617061806991FF1CF869571056105089408950E942204A0F0BEE7D4
:20088000B91788F4BB279F3860F41616B11D672F782F8827985FF7CF869577956795B11D6B
:2008A00093959639C8F30895E894BB2766277727CB0197F908950E946E040C9409040E9404
:2008C000FB0338F00E94020420F0952311F00C94C9030C94F80311240C9455040E941A048C
:2008E00070F3959FC1F3950F50E0551F629FF001729FBB27F00DB11D639FAA27F00DB11D17
:20090000AA1F649F6627B00DA11D661F829F2227B00DA11D621F739FB00DA11D621F839FE8
:20092000A00D611D221F749F3327A00D611D231F849F600D211D822F762F6A2F11249F5789
:2009400050409AF0F1F088234AF0EE0FFF1FBB1F661F771F881F91505040A9F79E3F5105BC
:2009600080F00C94C9030C9455045F3FE4F3983ED4F3869577956795B795F795E7959F5F1B
:14098000C1F7FE2B880F911D9695879597F90895F894FFCF6F
:00000001FF
