:100000000C943E000C945B000C945B000C945B0021
:100010000C945B000C945B000C945B000C945B00F4
:100020000C945B000C945B000C945B000C945B00E4
:100030000C945B000C945B000C945B000C945B00D4
:100040000C945B000C945B000C94CA030C945B0052
:100050000C945B000C945B000C945B000C945B00B4
:100060000C945B000C945B000C945B000C945B00A4
:100070000C945B000C945B000C945B0011241FBE7D
:10008000CFEFD0E1DEBFCDBF22E0A6E0B1E001C0FE
:100090001D92A93DB207E1F711E0A0E0B1E0EAE569
:1000A000F1E102C005900D92A630B107D9F70E9488
:1000B000D6040C94AB080C9400000DB407FEFDCFE1
:1000C00008958DB5449881E08EBD0DB407FEFDCF37
:1000D0008EB5449A089584B1826884B984B1867ECD
:1000E00084B987B1806387B984B7877F84BFE0E62E
:1000F000F0E08081846080838081807F8083808144
:10010000896280838CB5816D8CBD8CB58D7F8CBDF3
:100110008DB581608DBD0E94610008958DB54498B4
:100120008CE08EBD0DB407FEFDCF1EBC0DB407FEE6
:10013000FDCF8EB5449A089544989DB597E09EBD35
:100140000DB407FEFDCF9EB58EBD0DB407FEFDCFED
:100150008EB5449A08958DB544988AE08EBD0DB44D
:1001600007FEFDCF8EB5449A089544988DB58BE077
:100170008EBD0DB407FEFDCF8EB51EBC0DB407FEBF
:10018000FDCF9EB51EBC0DB407FEFDCF8EB5449AC3
:10019000089544982DB520E12EBD0DB407FEFDCF86
:1001A0002EB59EBD0DB407FEFDCF9EB58EBD0DB420
:1001B00007FEFDCF8EB5449A0895CF93DF9300D00C
:1001C00000D0CDB7DEB78DB5449888E08EBD0DB4B4
:1001D00007FEFDCF1EBC0DB407FEFDCF8EB51EBCC5
:1001E0000DB407FEFDCF8EB51EBC0DB407FEFDCFCE
:1001F0008EB590E0B0E0A0E0BA2FA92F982F882705
:100200001EBC0DB407FEFDCF2EB5449AAC01422BA7
:10021000CD01BA010F900F900F900F90DF91CF9109
:100220000895282F392F44988DB58EE08EBD0DB4DA
:1002300007FEFDCF8EB512161306CCF5A6E0B1E091
:10024000C901880F991F880F991F8A5F9E4F4D9192
:100250005D916D917D91472F5527662777274EBD7C
:100260000DB407FEFDCF2EB5FD0172916291529142
:100270004291AB01662777274EBD0DB407FEFDCF37
:100280002EB54081518162817381452F562F672F92
:1002900077274EBD0DB407FEFDCF2EB520812EBDB4
:1002A0000DB407FEFDCF2EB5A817B90781F6449A05
:1002B0000895862F0895872F8F700895CF93DF9329
:1002C00000D000D0CDB7DEB7DC01CB01072E7AE03D
:1002D000B695A795979587957A95D1F7702D9C013E
:1002E000AD0147705527CA01B9010F900F900F90CB
:1002F0000F90DF91CF910895CF93DF9300D000D07E
:10030000CDB7DEB7DC01CB018827B7FD83959927F0
:10031000AA27BB270F900F900F900F90DF91CF91DE
:100320000895EEEEF0E01192E83FF105E1F708954F
:100330000F931F93CF93C0E00DEE10E0F801C08340
:100340000E949101C05FC036C9F7CF911F910F91F4
:100350000895CF93DF9300D000D0CDB7DEB7698387
:100360007A838B839C838D85880F880F880F99856E
:100370009295990F907E890F8093F3008985880F5D
:10038000880F880F9D819295990F907E890F809399
:10039000F2008D81880F880F880F99819295990FAF
:1003A000907E890F8093F1008981880F880F880FD4
:1003B0008093F0000F900F900F900F90DF91CF91EE
:1003C0000895CF93DF9300D000D0CDB7DEB7698317
:1003D0007A838B839C83E3EFF0E08081869586951A
:1003E00086958C83A2EFB0E08C919081869586955E
:1003F00086959295990F907E890F8B83E1EFF0E0BF
:1004000080819C918695869586959295990F907E90
:10041000890F8A838091F00080810F900F900F9058
:100420000F90DF91CF910895462F572FCA019695CF
:10043000879596958795969587958093F300429535
:10044000440F407E4093F200EFEEF0E080818F7E1B
:1004500080830895CF93DF9300D000D0CDB7DEB76F
:1004600069837A838B839C83E3EFF0E080818295BC
:10047000869587708A838091F20080810F900F901B
:100480000F900F90DF91CF910895EF92FF920F930D
:100490001F93CF93DF93E62F972FE22EF32E8295B3
:1004A000807F8093ED00CFEED0E088818F7E8883BF
:1004B00088818F7D8883A0EFB0E08C918B7F8C93B7
:1004C000642F752F8E2F0E94A901888180618883F7
:1004D000602F712F8E2D9F2D0E94A901E4EFF0E077
:1004E0008081856080838881847F888388818F7301
:1004F0008883888180688883DF91CF911F910F91D5
:10050000FF90EF9008950F931F93CF9381E0809316
:10051000D80086E08093E20084E08093E30083E1EA
:100520008093E4008FEF8093E5000E949801C2E081
:1005300000E010E020E03FE140E050E0BA018C2F05
:100540000E944502CF5FC53099F700E01FEF2FEF03
:100550003FE140E050E0BA0184E00E94450200E043
:100560001FEF2FEF3FE140E050E0BA0185E00E942D
:1005700045028CE38093DC001092DD008093DE0066
:100580001092DF008AEE8093DB00E8EDF0E08081DE
:1005900082608083CF911F910F910895CF93DF9355
:1005A00000D000D0CDB7DEB7E82FF92F20858185A8
:1005B00090E0B0E0A0E0BA2FA92F982F8827A22BB7
:1005C0002285822B9C01AD015865CA01B9010F90AB
:1005D0000F900F900F90DF91CF910895CF92DF92FF
:1005E000EF92FF920F931F93CF93DF93E82EF92E94
:1005F0001091ED0080E040E050E0BA01ECEDF0E059
:1006000016C04F5F5F4F6F4F7F4FA895208130E03E
:1006100002C035952795AA95E2F720FF1AC04F3FF3
:100620009FEF590769079FE0790709F455C0A82F84
:10063000082E000CBB0B082F9D012F5F3F4FC901F7
:10064000817090783323ECF601978E6F9F6F01963F
:10065000D8CF4F3F5F4F6F4F7F40F0F50295007F3F
:100660000F2EFDEECF2ED12CF02DF6010083CFEE14
:10067000D0E088818F738883EEEEF0E080818F7BFD
:100680008083888180638883E0EFF0E080818460EC
:100690008083C7010E94CE020E94A9018881807FC9
:1006A0008883888188608883F6018081807F808349
:1006B000F701E7012896AAEFB0E081918C93EC173F
:1006C000FD07D9F7EFEEF0E080818F7380838081A2
:1006D000806480831093ED00DF91CF911F910F9183
:1006E000FF90EF90DF90CF900895CF93DF93CDB739
:1006F000DEB72B970FB6F894DEBF0FBECDBF91E0EB
:1007000099836A837B838B87CE0101960E94EE02D8
:100710002B960FB6F894DEBF0FBECDBFDF91CF9101
:100720000895CF93DF93C82FD92F60E070E0CB01FD
:100730000E942A02188619861A86FE012896AAEFB8
:10074000B0E02C912193EC17FD07D9F780E0DF9101
:10075000CF9108958091D2028E3148F48091D102D8
:100760002BE0829FC00111248A579E4F089590E08C
:1007700080E00895E1EDF2E0808190E001966EE185
:1007800070E00E94FA048083E2EDF2E080818F5FE6
:10079000808308951F920F920FB60F9211249F929B
:1007A000AF92BF92CF92DF92EF92FF920F931F937F
:1007B0002F933F934F935F936F937F938F939F9369
:1007C000AF93BF93CF93DF93EF93FF939090ED00A0
:1007D000C2E0D0E000EE10E00F2EFDEECF2ED12CC7
:1007E000F02D0F2EFEEEEF2EF12CF02D0F2EFFEE42
:1007F000AF2EB12CF02D0EC0F50180818F73808358
:10080000808180688083F701808110822196C630C4
:10081000D10511F1F801808191818C739927892B81
:10082000D9F0F801808191810C2E02C096958795B0
:100830000A94E2F780FFEACF8C2F8295807FF60141
:100840008083F701808185FFDECF0E94AA03892B78
:1008500099F20E94BA03D0CF8FE78093DA0090928A
:10086000ED00FF91EF91DF91CF91BF91AF919F91FB
:100870008F917F916F915F914F913F912F911F9138
:100880000F91FF90EF90DF90CF90BF90AF909F902F
:100890000F900FBE0F901F901895CF93DF9300D04D
:1008A00000D0CDB7DEB78B3008F08FE090E0B0E03D
:1008B000A0E0072E7EE0880F991FAA1FBB1F7A9524
:1008C000D1F7702D9C01AD012168CA01B9010F90CB
:1008D0000F900F900F90DF91CF910895CF93DF93FA
:1008E00000D000D0CDB7DEB7282F30E050E040E098
:1008F00029833A834B835C83CA01B9010E94300685
:1009000020E030E040EA50E469837A838B839C8363
:1009100069817A818B819C810E94160720E030E0FA
:1009200040E151E469837A838B839C8369817A8176
:100930008B819C810E948F0520E030E040E052E4F2
:1009400069837A838B839C8369817A818B819C8183
:100950000E94230569837A838B839C8369817A81D2
:100960008B819C810E946D0669837A838B839C8333
:1009700069817A818B819C810E94010670E090E000
:1009800080E0052E51E1660F771F881F991F5A9549
:10099000D1F7502D9B01AC01216CCA01B9010F9018
:1009A0000F900F900F90DF91CF910895F8940E94CF
:1009B0006B0081E00E949C0088E390EE0E94C900D9
:1009C0000E9483028BE090E00E948307C82FD92FFA
:1009D00080E28887198681E88A87F8940E94DD0082
:1009E0000E9459018883CE010E94EE0283B78E7F58
:1009F00083BFF3CF97FB072E16F4009407D077FD43
:100A000009D00E940E0507FC05D03EF49095819513
:100A10009F4F0895709561957F4F0895AA1BBB1B4A
:100A200051E107C0AA1FBB1FA617B70710F0A61BEE
:100A3000B70B881F991F5A95A9F780959095BC010F
:100A4000CD0108955058BB27AA270E943A050C945F
:100A5000C4060E94B60638F00E94BD0620F039F4A4
:100A60009F3F19F426F40C94B3060EF4E095E7FBCF
:100A70000C948406E92F0E94D50658F3BA17620732
:100A800073078407950720F079F4A6F50C940F07F7
:100A90000EF4E0950B2EBA2FA02D0B01B901900199
:100AA0000C01CA01A0011124FF27591B99F0593FDD
:100AB00050F4503E68F11A16F040A22F232F342F25
:100AC0004427585FF3CF469537952795A795F04073
:100AD0005395C9F77EF41F16BA0B620B730B840B88
:100AE000BAF09150A1F0FF0FBB1F661F771F881F40
:100AF000C2F70EC0BA0F621F731F841F48F4879598
:100B000077956795B795F7959E3F08F0B0CF939589
:100B1000880F08F09927EE0F9795879508950E9402
:100B2000A3050C94C4060E94BD0658F00E94B606A8
:100B300040F029F45F3F29F00C94840651110C9485
:100B400010070C94B3060E94D50668F39923B1F3FD
:100B5000552391F3951B550BBB27AA2762177307E3
:100B6000840738F09F5F5F4F220F331F441FAA1F77
:100B7000A9F335D00E2E3AF0E0E832D09150504033
:100B8000E695001CCAF72BD0FE2F29D0660F771FE1
:100B9000881FBB1F261737074807AB07B0E809F0C7
:100BA000BB0B802DBF01FF2793585F4F3AF09E3F4C
:100BB000510578F00C9484060C9410075F3FE4F321
:100BC000983ED4F3869577956795B795F7959F5F8F
:100BD000C9F7880F911D9695879597F90895E1E0DB
:100BE000660F771F881FBB1F621773078407BA073A
:100BF00020F0621B730B840BBA0BEE1F88F7E09595
:100C000008950E94DD0688F09F5798F0B92F992724
:100C1000B751B0F0E1F0660F771F881F991F1AF0E7
:100C2000BA95C9F714C0B13091F00E940F07B1E036
:100C300008950C940F07672F782F8827B85F39F035
:100C4000B93FCCF3869577956795B395D9F73EF480
:100C500090958095709561957F4F8F4F9F4F089528
:100C6000E89409C097FB3EF4909580957095619546
:100C70007F4F8F4F9F4F9923A9F0F92F96E9BB27FC
:100C80009395F695879577956795B795F111F8CF78
:100C9000FAF4BB0F11F460FF1BC06F5F7F4F8F4FE3
:100CA0009F4F16C0882311F096E911C0772321F0D9
:100CB0009EE8872F762F05C0662371F096E8862F71
:100CC00070E060E02AF09A95660F771F881FDAF7C8
:100CD000880F9695879597F908950E94F70690F0EA
:100CE0009F3748F4911116F00C94100760E070E003
:100CF00080E89FEB089526F41B16611D711D811D70
:100D00000C948A060C94A50697F99F6780E870E01A
:100D100060E00895882371F4772321F09850872BA1
:100D2000762F07C0662311F499270DC09051862BAA
:100D300070E060E02AF09A95660F771F881FDAF757
:100D4000880F9695879597F908959F3F31F09150B8
:100D500020F4879577956795B795880F911D96959F
:100D6000879597F908959FEF80EC089500240A94E1
:100D70001616170618060906089500240A94121676
:100D80001306140605060895092E0394000C11F4A9
:100D9000882352F0BB0F40F4BF2B11F460FF04C056
:100DA0006F5F7F4F8F4F9F4F089557FD9058440FAF
:100DB000551F59F05F3F71F04795880F97FB991FBA
:100DC00061F09F3F79F08795089512161306140677
:100DD000551FF2CF4695F1DF08C016161706180604
:100DE000991FF1CF869571056105089408950E94B9
:100DF000DD06A0F0BEE7B91788F4BB279F3860F482
:100E00001616B11D672F782F8827985FF7CF869524
:100E100077956795B11D93959639C8F30895E89431
:100E2000BB2766277727CB0197F908950E942907EA
:100E30000C94C4060E94B60638F00E94BD0620F04D
:100E4000952311F00C9484060C94B30611240C9491
:100E500010070E94D50670F3959FC1F3950F50E0DF
:100E6000551F629FF001729FBB27F00DB11D639F5C
:100E7000AA27F00DB11DAA1F649F6627B00DA11D02
:100E8000661F829F2227B00DA11D621F739FB00DA8
:100E9000A11D621F839FA00D611D221F749F332718
:100EA000A00D611D231F849F600D211D822F762FB1
:100EB0006A2F11249F5750409AF0F1F088234AF08E
:100EC000EE0FFF1FBB1F661F771F881F91505040FA
:100ED000A9F79E3F510580F00C9484060C941007EE
:100EE0005F3FE4F3983ED4F3869577956795B79581
:100EF000F795E7959F5FC1F7FE2B880F911D96959B
:100F0000879597F908950F931F93CF93DF939C01D3
:100F1000029710F422E030E0E091D702F091D8027D
:100F200090E080E0B0E0A0E0309791F4009709F401
:100F300045C0821B930B84309105B8F58A819B8153
:100F40006115710569F1FB0193838283FE0111C074
:100F5000408151810281138142175307F0F04217FB
:100F6000530799F4109761F012960C931297139609
:100F70001C933296CF01DF91CF911F910F9108956D
:100F80000093D7021093D802F4CF009719F04817B6
:100F9000590718F4CA01BD01EF01DF01F801C4CF00
:100FA0009093D8028093D702D1CFFE01E80FF91FAA
:100FB00021933193029799838883DCCF8091D50266
:100FC0009091D602892B41F4809102019091030106
:100FD0009093D6028093D5028091000190910101F7
:100FE000009741F48DB79EB74091040150910501DF
:100FF000841B950B4091D5025091D6024817590792
:1010000008F0B8CF841B950B8217930708F4B2CF72
:10101000B9016E5F7F4F8617970708F4ABCF640F57
:10102000751F7093D6026093D502FA012193319314
:10103000A1CFCF93DF939C010097E9F0FC01329799
:1010400013821282C091D702D091D802DE0190E0C3
:1010500080E02097A1F480819181280F391F809131
:10106000D5029091D6028217930709F067C0F093DA
:10107000D602E093D502DF91CF910895DA01AE1741
:10108000BF0708F041C012964D915C911397CD01B6
:101090004115510599F7DC011396FC93EE931297D5
:1010A0004D915D91A40FB51FEA17FB0781F42081D4
:1010B00031812E5F3F4F240F351FDC0111963C9389
:1010C0002E932281338113963C932E931297B0E096
:1010D000A0E08A819B810097B1F5FE0181919191F9
:1010E000E80FF91F8091D5029091D6028E179F07C5
:1010F00011F6109759F51092D8021092D702D0939A
:10110000D602C093D502B7CFB383A2834081518169
:10111000240F351FA217B30771F44E5F5F4F2D9157
:101120003C911197420F531F5183408312962D918A
:101130003C9133832283009709F0ADCFF093D8021E
:10114000E093D70298CFDE01EC01C3CF13961C9237
:0A1150001E921297D4CFF894FFCF3F
:06115A000000D902200094
:00000001FF
