:100000000C943E000C945B000C945B000C945B0021
:100010000C945B000C945B000C945B000C945B00F4
:100020000C945B000C945B000C945B000C945B00E4
:100030000C945B000C945B000C945B000C945B00D4
:100040000C945B000C945B000C945B000C945B00C4
:100050000C945B000C945B000C945B000C945B00B4
:100060000C945B000C945B000C945B000C945B00A4
:100070000C945B000C945B000C945B0011241FBE7D
:10008000CFEFD0E1DEBFCDBF22E0A6E0B1E001C0FE
:100090001D92A93DB207E1F711E0A0E0B1E0E2E86E
:1000A000F0E102C005900D92A630B107D9F70E9489
:1000B0006B040C943F080C9400000DB407FEFDCFB8
:1000C00008958DB5449881E08EBD0DB407FEFDCF37
:1000D0008EB5449A089584B1826884B984B1867ECD
:1000E00084B987B1806387B984B7877F84BFE0E62E
:1000F000F0E08081846080838081807F8083808144
:10010000896280838CB5816D8CBD8CB58D7F8CBDF3
:100110008DB581608DBD0E94610008958DB54498B4
:100120008CE08EBD0DB407FEFDCF1EBC0DB407FEE6
:10013000FDCF8EB5449A089544989DB597E09EBD35
:100140000DB407FEFDCF9EB58EBD0DB407FEFDCFED
:100150008EB5449A08958DB544988AE08EBD0DB44D
:1001600007FEFDCF8EB5449A089544988DB58BE077
:100170008EBD0DB407FEFDCF8EB51EBC0DB407FEBF
:10018000FDCF9EB51EBC0DB407FEFDCF8EB5449AC3
:10019000089544982DB520E12EBD0DB407FEFDCF86
:1001A0002EB59EBD0DB407FEFDCF9EB58EBD0DB420
:1001B00007FEFDCF8EB5449A08950F931F93CF93FA
:1001C000DF9300D000D0CDB7DEB78DB5449888E07E
:1001D0008EBD0DB407FEFDCF1EBC0DB407FEFDCFD6
:1001E0008EB590E0B0E0A0E0B82FAA279927882725
:1001F0001EBC0DB407FEFDCF2EB5A22B1EBC0DB448
:1002000007FEFDCF4EB550E070E060E0762F652F21
:10021000542F44271EBC0DB407FEFDCF2EB5449AC3
:10022000822B8C019D01042B152B262B372BC9010A
:10023000B8010F900F900F900F90DF91CF911F9109
:100240000F910895282F392F44988DB58EE08EBDDB
:100250000DB407FEFDCF8EB512161306CCF5A6E041
:10026000B1E0C901880F991F880F991F8A5F9E4FBF
:100270004D915D916D917D91472F55276627772789
:100280004EBD0DB407FEFDCF2EB5FD0172916291FA
:1002900052914291AB01662777274EBD0DB407FE00
:1002A000FDCF2EB54081518162817381452F562F3C
:1002B000672F77274EBD0DB407FEFDCF2EB52081E9
:1002C0002EBD0DB407FEFDCF2EB5A817B90781F6D8
:1002D000449A0895862F0895872F8F700895CF939D
:1002E000DF9300D000D0CDB7DEB7DC01CB01072E05
:1002F0007AE0B695A795979587957A95D1F7702D61
:100300009C01AD0147705527CA01B9010F900F90AC
:100310000F900F90DF91CF910895CF93DF9300D08E
:1003200000D0CDB7DEB7DC01CB018827B7FD8395C0
:100330009927AA27BB270F900F900F900F90DF915E
:10034000CF910895EEEEF0E01192E83FF105E1F76C
:1003500008950F931F93CF93C0E00DEE10E0F801C6
:10036000C0830E94A201C05FC036C9F7CF911F9120
:100370000F910895CF93DF9300D000D0CDB7DEB7B3
:1003800069837A838B839C838D85880F880F880F80
:1003900099859295990F907E890F8093F3008985B6
:1003A000880F880F880F9D819295990F907E890FF5
:1003B0008093F2008D81880F880F880F9981929524
:1003C000990F907E890F8093F1008981880F880FA3
:1003D000880F8093F0000F900F900F900F90DF9197
:1003E000CF910895CF93DF9300D000D0CDB7DEB783
:1003F00069837A838B839C83E3EFF0E08081869529
:10040000869586958C83A2EFB0E08C91908186953D
:10041000869586959295990F907E890F8B83E1EF53
:10042000F0E080819C918695869586959295990FAE
:10043000907E890F8A838091F00080810F900F90C9
:100440000F900F90DF91CF910895462F572FCA013B
:100450009695879596958795969587958093F300C1
:100460004295440F407E4093F200EFEEF0E0808131
:100470008F7E80830895CF93DF9300D000D0CDB7D7
:10048000DEB769837A838B839C83E3EFF0E080811E
:100490008295869587708A838091F20080810F9083
:1004A0000F900F900F90DF91CF910895EF92FF92F0
:1004B0000F931F93CF93DF93E62F972FE22EF32E08
:1004C0008295807F8093ED00CFEED0E088818F7E93
:1004D000888388818F7D8883A0EFB0E08C918B7FAB
:1004E0008C93642F752F8E2F0E94BA0188818061B2
:1004F0008883602F712F8E2D9F2D0E94BA01E4EF0B
:10050000F0E08081856080838881847F8883888112
:100510008F738883888180688883DF91CF911F9152
:100520000F91FF90EF9008950F931F93CF9381E069
:100530008093D80086E08093E20084E08093E3001B
:1005400083E18093E4008FEF8093E5000E94A9018E
:10055000C2E000E010E020E03FE140E050E0BA01FE
:100560008C2F0E945602CF5FC53099F700E01FEF35
:100570002FEF3FE140E050E0BA0184E00E945602D4
:1005800000E01FEF2FEF3FE140E050E0BA0185E0CF
:100590000E9456028CE38093DC001092DD00809371
:1005A000DE001092DF008AEE8093DB00E8EDF0E0E1
:1005B000808182608083CF911F910F910895CF93A6
:1005C000DF9300D000D0CDB7DEB7E82FF92F20851C
:1005D000818590E0B0E0A0E0BA2FA92F982F88275E
:1005E000A22B2285822B9C01AD015865CA01B9015D
:1005F0000F900F900F900F90DF91CF910895CF92B1
:10060000DF92EF92FF920F931F93CF93DF93E82E29
:10061000F92E1091ED0080E040E050E0BA01ECEDE1
:10062000F0E016C04F5F5F4F6F4F7F4FA89520815E
:1006300030E002C035952795AA95E2F720FF1AC051
:100640004F3F9FEF590769079FE0790709F455C0AD
:10065000A82F082E000CBB0B082F9D012F5F3F4FCA
:10066000C901817090783323ECF601978E6F9F6FEC
:100670000196D8CF4F3F5F4F6F4F7F40F0F5029507
:10068000007F0F2EFDEECF2ED12CF02DF601008332
:10069000CFEED0E088818F738883EEEEF0E080812A
:1006A0008F7B8083888180638883E0EFF0E08081A6
:1006B00084608083C7010E94DF020E94BA018881A2
:1006C000807F8883888188608883F6018081807F2D
:1006D0008083F701E7012896AAEFB0E081918C931F
:1006E000EC17FD07D9F7EFEEF0E080818F73808380
:1006F0008081806480831093ED00DF91CF911F9102
:100700000F91FF90EF90DF90CF900895CF93DF93FC
:10071000CDB7DEB72B970FB6F894DEBF0FBECDBFB7
:1007200091E099836A837B838B87CE0101960E9437
:10073000FF022B960FB6F894DEBF0FBECDBFDF9140
:10074000CF910895CF93DF93C82FD92F80E2809364
:10075000ED0060E070E0CB010E94F201188619867E
:100760001A86FE012896AAEFB0E02C912193EC178F
:10077000FD07D9F7EFEEF0E080818F7380838081F1
:1007800080688083EEEEF0E080818F7D8083DF9152
:10079000CF910895CF93DF9300D000D0CDB7DEB7CF
:1007A000DC01CB01072E7EE0B695A795979587953E
:1007B0007A95D1F7702D0F900F900F900F90DF91D9
:1007C000CF910895CF93DF9300D000D0CDB7DEB79F
:1007D0008B3008F08FE090E0B0E0A0E0072E7EE0E4
:1007E000880F991FAA1FBB1F7A95D1F7702D9C0106
:1007F000AD012168CA01B9010F900F900F900F90C1
:10080000DF91CF910895CF93DF9300D000D0CDB783
:10081000DEB7282F30E050E040E029833A834B8355
:100820005C83CA01B9010E94C40520E030E040EABF
:1008300050E469837A838B839C8369817A818B817D
:100840009C810E94AA0620E030E040E151E46983E7
:100850007A838B839C8369817A818B819C810E94BE
:10086000230520E030E040E052E469837A838B8303
:100870009C8369817A818B819C810E94B704698302
:100880007A838B839C8369817A818B819C810E948E
:10089000010669837A838B839C8369817A818B814A
:1008A0009C810E94950570E090E080E0052E51E16A
:1008B000660F771F881F991F5A95D1F7502D9B01FE
:1008C000AC012168CA01B9010F900F900F900F90F1
:1008D000DF91CF910895CF93DF9300D000D000D067
:1008E000CDB7DEB7F8940E946B0081E00E949C00B7
:1008F00088E390EE0E94C9000E9494028BE090E091
:100900000E941707C82ED92E0F2EF6E2EF2EF1E027
:10091000FF2EF02D0BC080E890E00E9422018C2D6C
:100920009D2D0E94FF0283B78E7F83BFA8958C2DDB
:100930009D2D0E94A2030C2D1D2D86E091E09E832B
:100940008D83D8018D918D010E94030469837A8380
:100950008B839C83ED81FE8161937193819391934D
:10096000FE83ED83EE15FF0561F7D5CF5058BB2709
:10097000AA270E94CE040C9458060E944A0638F01A
:100980000E94510620F039F49F3F19F426F40C948C
:1009900047060EF4E095E7FB0C941806E92F0E9439
:1009A000690658F3BA17620773078407950720F0A2
:1009B00079F4A6F50C94A3060EF4E0950B2EBA2F4D
:1009C000A02D0B01B90190010C01CA01A001112455
:1009D000FF27591B99F0593F50F4503E68F11A1601
:1009E000F040A22F232F342F4427585FF3CF469592
:1009F00037952795A795F0405395C9F77EF41F16B4
:100A0000BA0B620B730B840BBAF09150A1F0FF0F7D
:100A1000BB1F661F771F881FC2F70EC0BA0F621F69
:100A2000731F841F48F4879577956795B795F79559
:100A30009E3F08F0B0CF9395880F08F09927EE0FEE
:100A40009795879508950E9437050C9458060E9443
:100A5000510658F00E944A0640F029F45F3F29F001
:100A60000C94180651110C94A4060C9447060E948D
:100A7000690668F39923B1F3552391F3951B550B40
:100A8000BB27AA2762177307840738F09F5F5F4F61
:100A9000220F331F441FAA1FA9F335D00E2E3AF0A0
:100AA000E0E832D091505040E695001CCAF72BD0B8
:100AB000FE2F29D0660F771F881FBB1F2617370709
:100AC0004807AB07B0E809F0BB0B802DBF01FF273B
:100AD00093585F4F3AF09E3F510578F00C941806FA
:100AE0000C94A4065F3FE4F3983ED4F38695779583
:100AF0006795B795F7959F5FC9F7880F911D9695F4
:100B0000879597F90895E1E0660F771F881FBB1F4F
:100B1000621773078407BA0720F0621B730B840BFC
:100B2000BA0BEE1F88F7E09508950E94710688F0D1
:100B30009F5798F0B92F9927B751B0F0E1F0660FA1
:100B4000771F881F991F1AF0BA95C9F714C0B130E2
:100B500091F00E94A306B1E008950C94A306672FBC
:100B6000782F8827B85F39F0B93FCCF38695779511
:100B70006795B395D9F73EF49095809570956195FA
:100B80007F4F8F4F9F4F0895E89409C097FB3EF425
:100B900090958095709561957F4F8F4F9F4F9923CA
:100BA000A9F0F92F96E9BB279395F6958795779548
:100BB0006795B795F111F8CFFAF4BB0F11F460FF08
:100BC0001BC06F5F7F4F8F4F9F4F16C0882311F060
:100BD00096E911C0772321F09EE8872F762F05C074
:100BE000662371F096E8862F70E060E02AF09A950F
:100BF000660F771F881FDAF7880F9695879597F904
:100C000008950E948B0690F09F3748F4911116F0DA
:100C10000C94A40660E070E080E89FEB089526F451
:100C20001B16611D711D811D0C941E060C94390646
:100C300097F99F6780E870E060E00895882371F479
:100C4000772321F09850872B762F07C0662311F465
:100C500099270DC09051862B70E060E02AF09A959C
:100C6000660F771F881FDAF7880F9695879597F993
:100C700008959F3F31F0915020F4879577956795BF
:100C8000B795880F911D9695879597F908959FEFD1
:100C900080EC089500240A94161617061806090613
:100CA000089500240A9412161306140605060895E2
:100CB000092E0394000C11F4882352F0BB0F40F46A
:100CC000BF2B11F460FF04C06F5F7F4F8F4F9F4FAA
:100CD000089557FD9058440F551F59F05F3F71F02C
:100CE0004795880F97FB991F61F09F3F79F0879593
:100CF0000895121613061406551FF2CF4695F1DF1C
:100D000008C0161617061806991FF1CF86957105AB
:100D10006105089408950E947106A0F0BEE7B91716
:100D200088F4BB279F3860F41616B11D672F782F03
:100D30008827985FF7CF869577956795B11D93952E
:100D40009639C8F30895E894BB2766277727CB0127
:100D500097F908950E94BD060C9458060E944A0611
:100D600038F00E94510620F0952311F00C941806DB
:100D70000C94470611240C94A4060E94690670F393
:100D8000959FC1F3950F50E0551F629FF001729F30
:100D9000BB27F00DB11D639FAA27F00DB11DAA1F3F
:100DA000649F6627B00DA11D661F829F2227B00D8C
:100DB000A11D621F739FB00DA11D621F839FA00D17
:100DC000611D221F749F3327A00D611D231F849F67
:100DD000600D211D822F762F6A2F11249F575040BE
:100DE0009AF0F1F088234AF0EE0FFF1FBB1F661F39
:100DF000771F881F91505040A9F79E3F510580F002
:100E00000C9418060C94A4065F3FE4F3983ED4F3C8
:100E1000869577956795B795F795E7959F5FC1F7A5
:100E2000FE2B880F911D9695879597F908950F933E
:100E30001F93CF93DF939C01029710F422E030E0E0
:100E4000E091D702F091D80290E080E0B0E0A0E01D
:100E5000309791F4009709F445C0821B930B8430BE
:100E60009105B8F58A819B816115710569F1FB01D6
:100E700093838283FE0111C04081518102811381DD
:100E800042175307F0F04217530799F4109761F097
:100E900012960C93129713961C933296CF01DF9102
:100EA000CF911F910F9108950093D7021093D8020C
:100EB000F4CF009719F04817590718F4CA01BD017B
:100EC000EF01DF01F801C4CF9093D8028093D702DD
:100ED000D1CFFE01E80FF91F219331930297998337
:100EE0008883DCCF8091D5029091D602892B41F482
:100EF00080910201909103019093D6028093D502D4
:100F00008091000190910101009741F48DB79EB747
:100F10004091040150910501841B950B4091D5022D
:100F20005091D6024817590708F0B8CF841B950B8B
:100F30008217930708F4B2CFB9016E5F7F4F86170F
:100F4000970708F4ABCF640F751F7093D6026093B8
:100F5000D502FA0121933193A1CFCF93DF939C0166
:100F60000097E9F0FC01329713821282C091D702F8
:100F7000D091D802DE0190E080E02097A1F480813A
:100F80009181280F391F8091D5029091D602821746
:100F9000930709F067C0F093D602E093D502DF9182
:100FA000CF910895DA01AE17BF0708F041C012963D
:100FB0004D915C911397CD014115510599F7DC01D5
:100FC0001396FC93EE9312974D915D91A40FB51F6C
:100FD000EA17FB0781F4208131812E5F3F4F240FF8
:100FE000351FDC0111963C932E9322813381139699
:100FF0003C932E931297B0E0A0E08A819B810097EA
:10100000B1F5FE0181919191E80FF91F8091D50210
:101010009091D6028E179F0711F6109759F51092EE
:10102000D8021092D702D093D602C093D502B7CF80
:10103000B383A28340815181240F351FA217B307C8
:1010400071F44E5F5F4F2D913C911197420F531FEA
:101050005183408312962D913C91338322830097D4
:1010600009F0ADCFF093D802E093D70298CFDE011C
:10107000EC01C3CF13961C921E921297D4CFF89412
:02108000FFCFA0
:061082000000D90220006D
:00000001FF
