:100000000C943E000C945B000C945B000C945B0021
:100010000C945B000C945B000C945B000C945B00F4
:100020000C945B000C945B000C945B000C945B00E4
:100030000C945B000C945B000C945B000C945B00D4
:100040000C945B000C945B000C945B000C945B00C4
:100050000C945B000C945B000C945B000C945B00B4
:100060000C945B000C945B000C945B000C945B00A4
:100070000C945B000C945B000C945B0011241FBE7D
:10008000CFEFD0E1DEBFCDBF11E0A0E0B1E0E8E00E
:10009000F6E002C005900D92A630B107D9F721E035
:1000A000A6E0B1E001C01D92AA30B207E1F70E94BC
:1000B000B8010C9402030C940000EEEEF0E01192F3
:1000C000E83FF105E1F708950F931F93CF93C0E048
:1000D0000DEE10E0F801C0830E945D00C05FC036E5
:1000E000C9F7CF911F910F910895CF93DF9300D05F
:1000F00000D0CDB7DEB769837A838B839C838D85EF
:10010000880F880F880F99859295990F907E890F97
:100110008093F3008985880F880F880F9D819295C1
:10012000990F907E890F8093F2008D81880F880F40
:10013000880F99819295990F907E890F8093F10095
:100140008981880F880F880F8093F0000F900F909F
:100150000F900F90DF91CF910895EF92FF920F9340
:100160001F93CF93DF93E62F972FE22EF32E8295E6
:10017000807F8093ED00CFEED0E088818F7E8883F2
:1001800088818F7D8883A0EFB0E08C918B7F8C93EA
:10019000642F752F8E2F0E9475008881806188835F
:1001A000602F712F8E2D9F2D0E947500E4EFF0E0DF
:1001B0008081856080838881847F888388818F7334
:1001C0008883888180688883DF91CF911F910F9108
:1001D000FF90EF900895CF93DF93C8EDD0E081E0DA
:1001E000888386E08093E20084E08093E30083E1EB
:1001F0008093E4008FEF8093E5000E9464008CE31D
:100200008093DC001092DD008093DE001092DF000E
:100210008AEE8093DB00888182608883DF91CF91B2
:100220000895CF93DF9300D000D0CDB7DEB7E82F8D
:10023000F92F2085818590E0B0E0A0E0BA2FA92FAA
:10024000982F8827A22B2285822B9C01AD015A6012
:10025000CA01B9010F900F900F900F90DF91CF91CD
:100260000895CF92DF92EF92FF920F931F93CF9357
:10027000DF93E82EF92E1091ED0080E040E050E091
:10028000BA01ECEDF0E016C04F5F5F4F6F4F7F4F4C
:10029000A895208130E002C035952795AA95E2F710
:1002A00020FF1AC04F3F9FEF590769079FE079076A
:1002B00009F455C0A82F082E000CBB0B082F9D0178
:1002C0002F5F3F4FC901817090783323ECF601977F
:1002D0008E6F9F6F0196D8CF4F3F5F4F6F4F7F401C
:1002E000F0F50295007F0F2EFDEECF2ED12CF02DD4
:1002F000F6010083CFEED0E088818F738883EEEE25
:10030000F0E080818F7B8083888180638883E0EF49
:10031000F0E0808184608083C7010E9411010E9407
:1003200075008881807F8883888188608883F60152
:100330008081807F8083F701E7012896AAEFB0E0F3
:1003400081918C93EC17FD07D9F7EFEEF0E08081F7
:100350008F7380838081806480831093ED00DF91B0
:10036000CF911F910F91FF90EF90DF90CF90089564
:10037000F8940E94EB008BE090E00E94DA01C82F15
:10038000D92F80E28887198681E88A8781E088836F
:100390009BE599838A837894A895CE010E943101C8
:1003A0008FE39CE90197F1F700C0000083B78E7FCF
:1003B00083BFF2CF0F931F93CF93DF939C010297DC
:1003C00010F422E030E0E0910801F091090190E0A2
:1003D00080E0B0E0A0E0309791F4009709F445C0C8
:1003E000821B930B84309105B8F58A819B8161153E
:1003F000710569F1FB0193838283FE0111C0408185
:1004000051810281138142175307F0F042175307BD
:1004100099F4109761F012960C93129713961C930F
:100420003296CF01DF91CF911F910F9108950093E4
:10043000080110930901F4CF009719F048175907E4
:1004400018F4CA01BD01EF01DF01F801C4CF909398
:10045000090180930801D1CFFE01E80FF91F219314
:100460003193029799838883DCCF80910601909124
:100470000701892B41F4809102019091030190932F
:10048000070180930601809100019091010100977E
:1004900041F48DB79EB74091040150910501841B32
:1004A000950B40910601509107014817590708F034
:1004B000B8CF841B950B8217930708F4B2CFB9010C
:1004C0006E5F7F4F8617970708F4ABCF640F751FD9
:1004D0007093070160930601FA0121933193A1CF34
:1004E000CF93DF939C010097E9F0FC0132971382D0
:1004F0001282C0910801D0910901DE0190E080E0F4
:100500002097A1F480819181280F391F80910601E5
:10051000909107018217930709F067C0F0930701D4
:10052000E0930601DF91CF910895DA01AE17BF077E
:1005300008F041C012964D915C911397CD01411581
:10054000510599F7DC011396FC93EE9312974D91A8
:100550005D91A40FB51FEA17FB0781F4208131815B
:100560002E5F3F4F240F351FDC0111963C932E93D5
:100570002281338113963C932E931297B0E0A0E032
:100580008A819B810097B1F5FE0181919191E80FDD
:10059000F91F80910601909107018E179F0711F6B0
:1005A000109759F51092090110920801D093070194
:1005B000C0930601B7CFB383A28340815181240F3A
:1005C000351FA217B30771F44E5F5F4F2D913C9119
:1005D0001197420F531F5183408312962D913C91E6
:1005E00033832283009709F0ADCFF0930901E093A4
:1005F000080198CFDE01EC01C3CF13961C921E9226
:080600001297D4CFF894FFCF4C
:0606080000000A012000C1
:00000001FF
