:100000000C943E000C945B000C945B000C945B0021
:100010000C945B000C945B000C945B000C945B00F4
:100020000C945B000C945B000C945B000C945B00E4
:100030000C945B000C945B000C945B000C945B00D4
:100040000C945B000C945B000C945B000C945B00C4
:100050000C945B000C945B000C945B000C945B00B4
:100060000C945B000C945B000C945B000C945B00A4
:100070000C945B000C945B000C945B0011241FBE7D
:10008000CFEFD0E1DEBFCDBF11E0A0E0B1E0EAE309
:10009000F9E002C005900D92A630B107D9F721E032
:1000A000A6E0B1E001C01D92AA30B207E1F70E94BC
:1000B00038030C949B040C940000CF93DF9300D082
:1000C000CDB7DEB78EEE90E09A83898309C089812F
:1000D0009A81FC01108289819A8101969A83898391
:1000E00089819A81883F910590F3000000000F906C
:1000F0000F90DF91CF910895CF93DF930F92CDB7FB
:10010000DEB719820CC08DEE90E029812295207F08
:10011000FC0120830E945D0089818F5F8983898132
:10012000863088F3000000000F90DF91CF91089592
:10013000CF93DF9300D000D0CDB7DEB769837A8349
:100140008B839C83CE010D96FC018081382F330F69
:10015000330F330FCE010996FC018081282F2295A1
:10016000220F207E83EF90E0230FFC012083CE013D
:100170000996FC018081382F330F330F330FCE01E6
:100180000596FC018081282F2295220F207E82EF88
:1001900090E0230FFC012083CE010596FC018081B5
:1001A000382F330F330F330FCE010196FC018081BE
:1001B000282F2295220F207E81EF90E0230FFC0153
:1001C0002083CE010196FC01208180EF90E0220F78
:1001D000220F220FFC01208300000F900F900F9040
:1001E0000F90DF91CF9108950F931F93CF93DF93DB
:1001F000CDB7DEB761970FB6F894DEBF0FBECDBFA7
:1002000089834A835B836C837D830E831F83288766
:1002100039878DEE90E029812295207FDC012C9397
:100220008FEE90E0FC0120818FEE90E02F7EDC01CC
:100230002C938FEE90E0FC0120818FEE90E02F7DDB
:10024000DC012C9380EF90E0FC01208180EF90E0B6
:100250002B7FDC012C938A819B81AC81BD818A87B5
:100260009B87AC87BD876A857B858C859D850E9431
:1002700098008FEE90E0DC012C918FEE90E02061F1
:10028000FC0120838E819F81A885B9858E879F87F9
:10029000A88BB98B6E857F85888999890E94980083
:1002A00084EF90E0DC012C9184EF90E02560FC016C
:1002B00020838FEE90E0DC012C918FEE90E0247F84
:1002C000FC0120838FEE90E0DC012C918FEE90E01A
:1002D0002F73FC0120838FEE90E0DC012C918FEED8
:1002E00090E02068FC012083000061960FB6F8942E
:1002F000DEBF0FBECDBFDF91CF911F910F9108954B
:10030000CF93DF93CDB7DEB788ED90E021E0FC011D
:10031000208382EE90E026E0FC01208383EE90E0D3
:100320002CE0FC01208384EE90E027E3FC01208395
:1003300085EE90E02FEFFC0120830E947C008CED85
:1003400090E02CE3FC0120838DED90E0FC01108215
:100350008EED90E02CE3FC0120838FED90E0FC011A
:1003600010828BED90E02AEEFC01208388ED90E076
:10037000FC01208188ED90E02260FC0120830000D8
:10038000DF91CF910895CF93DF93CDB7DEB72E974E
:100390000FB6F894DEBF0FBECDBF9A87898780E085
:1003A00090E0A0E0BAE089839A83AB83BC8389851F
:1003B0009A85FC018085882F90E0A0E0B0E0DC0108
:1003C0009927882788279927BB2749815A816B81DC
:1003D0007C81842B952BA62BB72B8D839E83AF839B
:1003E000B88789859A85FC018185882F90E0A0E0F7
:1003F000B0E0BA2FA92F982F8827AA27BB274D81B5
:100400005E816F817885842B952BA62BB72B8D83EE
:100410009E83AF83B88789859A85FC018285882F62
:1004200090E0A0E0B0E04D815E816F817885842B03
:10043000952BA62BB72B8D839E83AF83B8878D8199
:100440009E81AF81B8858B879C87AD87BE876B8582
:100450007C858D859E852E960FB6F894DEBF0FBEE7
:10046000CDBFDF91CF910895CF93DF93CDB7DEB7A6
:100470006A970FB6F894DEBF0FBECDBF9A8B898BFB
:100480008FEF9FEFAFEFBFE08F839887A987BA8781
:1004900019821A821B821C828DEE90E0DC018C9105
:1004A0008B871D828D818C878D81082E000C990B86
:1004B000019681709078992324F401978E6F9F6F35
:1004C00001968D8389819A81AB81BC810196A11DA2
:1004D000B11D89839A83AB83BC83A8958CED90E092
:1004E000FC018081882F90E02C85022E000C330BBC
:1004F00002C0959587952A95E2F781709927892BF7
:1005000069F049815A816B817C818F819885A985A9
:10051000BA85481759076A077B0720F249815A8133
:100520006B817C818F819885A985BA854817590789
:100530006A077B0708F092C02C858DEE90E022952B
:10054000207FDC012C938FEE90E0FC0120818FEE68
:1005500090E02F73DC012C938EEE90E0FC01208163
:100560008EEE90E02F7BDC012C938FEE90E0FC016F
:1005700020818FEE90E02063DC012C9380EF90E0EF
:10058000FC01208180EF90E02460DC012C938989BC
:100590009A890E94C3016B8B7C8B8D8B9E8B8B8980
:1005A0009C89AD89BE898D879E87AF87B88B8D85E5
:1005B0009E85AF85B8898F8B988FA98FBA8F6F89E9
:1005C000788D898D9A8D0E9498008FEE90E0DC01E5
:1005D0002C918FEE90E0207FFC0120838FEE90E045
:1005E000DC012C918FEE90E02860FC0120838DEEE1
:1005F00090E0DC012C918DEE90E0207FFC012083C7
:100600001E8211C08E81282F880F330B8AEF90E055
:1006100049895A89240F351FD9012C91FC01208367
:100620008E818F5F8E838E81883064F38FEE90E0B1
:10063000DC012C918FEE90E02F73FC0120838FEE74
:1006400090E0DC012C918FEE90E02064FC0120838F
:100650008DEE90E02B85DC012C9301C000006A96A2
:100660000FB6F894DEBF0FBECDBFDF91CF910895D6
:10067000CF93DF9300D0CDB7DEB7F8940E9480010E
:100680008BE090E00E9473039A83898389819A8129
:1006900020E2FC01208789819A81FC0111868981F1
:1006A0009A8121E8FC01228789819A8121E0FC015D
:1006B000208389819A812BE5FC01218389819A819C
:1006C00021E0FC0122837894A89589819A810E9477
:1006D000340283E590E0FC01208183E590E02E7FE9
:1006E000FC012083F1CF0F931F93CF93DF939C01E5
:1006F000029710F422E030E0E0910801F091090146
:1007000090E080E0B0E0A0E0309791F4009709F429
:1007100045C0821B930B84309105B8F58A819B817B
:100720006115710569F1FB0193838283FE0111C09C
:10073000408151810281138142175307F0F0421723
:10074000530799F4109761F012960C931297139631
:100750001C933296CF01DF91CF911F910F91089595
:100760000093080110930901F4CF009719F048177E
:10077000590718F4CA01BD01EF01DF01F801C4CF28
:100780009093090180930801D1CFFE01E80FF91F72
:1007900021933193029799838883DCCF809106015E
:1007A00090910701892B41F48091020190910301FE
:1007B00090930701809306018091000190910101BF
:1007C000009741F48DB79EB7409104015091050107
:1007D000841B950B4091060150910701481759075A
:1007E00008F0B8CF841B950B8217930708F4B2CF9B
:1007F000B9016E5F7F4F8617970708F4ABCF640F80
:10080000751F7093070160930601FA0121933193DC
:10081000A1CFCF93DF939C010097E9F0FC013297C1
:1008200013821282C0910801D0910901DE0190E08B
:1008300080E02097A1F480819181280F391F809159
:100840000601909107018217930709F067C0F093A2
:100850000701E0930601DF91CF910895DA01AE1709
:10086000BF0708F041C012964D915C911397CD01DE
:100870004115510599F7DC011396FC93EE931297FD
:100880004D915D91A40FB51FEA17FB0781F42081FC
:1008900031812E5F3F4F240F351FDC0111963C93B1
:1008A0002E932281338113963C932E931297B0E0BE
:1008B000A0E08A819B810097B1F5FE018191919121
:1008C000E80FF91F80910601909107018E179F078D
:1008D00011F6109759F51092090110920801D09362
:1008E0000701C0930601B7CFB383A2834081518132
:1008F000240F351FA217B30771F44E5F5F4F2D9180
:100900003C911197420F531F5183408312962D91B2
:100910003C9133832283009709F0ADCFF093090116
:10092000E093080198CFDE01EC01C3CF13961C922F
:0A0930001E921297D4CFF894FFCF67
:06093A0000000A0120008C
:00000001FF
