:100000000C943E000C9450000C9450000C94500042
:100010000C9450000C9450000C9450000C94500020
:100020000C9450000C9450000C9450000C94500010
:100030000C9450000C9450000C9450000C94500000
:100040000C9450000C9450000C948B020C945000B3
:100050000C9450000C9450000C9450000C945000E0
:100060000C9450000C9450000C9450000C945000D0
:100070000C9450000C9450000C94500011241FBE9E
:10008000CFEFD0E1DEBFCDBF22E0A0E0B1E001C004
:100090001D92AD34B207E1F70E940E030C944503A4
:1000A0000C940000EEEEF0E01192E83FF105E1F76C
:1000B00008950F931F93CF93C0E00DEE10E0F80169
:1000C000C0830E945200C05FC036C9F7CF911F9114
:1000D0000F910895CF93DF9300D000D0CDB7DEB756
:1000E00069837A838B839C838D85880F880F880F23
:1000F00099859295990F907E890F8093F300898559
:10010000880F880F880F9D819295990F907E890F97
:100110008093F2008D81880F880F880F99819295C6
:10012000990F907E890F8093F1008981880F880F45
:10013000880F8093F0000F900F900F900F90DF9139
:10014000CF910895CF93DF9300D000D0CDB7DEB725
:1001500069837A838B839C83E3EFF0E080818695CB
:10016000869586958C83A2EFB0E08C9190818695E0
:10017000869586959295990F907E890F8B83E1EFF6
:10018000F0E080819C918695869586959295990F51
:10019000907E890F8A838091F00080810F900F906C
:1001A0000F900F90DF91CF910895462F572FCA01DE
:1001B0009695879596958795969587958093F30064
:1001C0004295440F407E4093F200EFEEF0E08081D4
:1001D0008F7E80830895CF93DF9300D000D0CDB77A
:1001E000DEB769837A838B839C83E3EFF0E08081C1
:1001F0008295869587708A838091F20080810F9026
:100200000F900F900F90DF91CF910895EF92FF9292
:100210000F931F93CF93DF93E62F972FE22EF32EAA
:100220008295807F8093ED00CFEED0E088818F7E35
:10023000888388818F7D8883A0EFB0E08C918B7F4D
:100240008C93642F752F8E2F0E946A0088818061A5
:100250008883602F712F8E2D9F2D0E946A00E4EFFE
:10026000F0E08081856080838881847F88838881B5
:100270008F738883888180688883DF91CF911F91F5
:100280000F91FF90EF9008950F931F93CF9381E00C
:100290008093D80086E08093E20084E08093E300BE
:1002A00083E18093E4008FEF8093E5000E94590082
:1002B000C2E000E010E020E03FE140E050E0BA01A1
:1002C0008C2F0E940601CF5FC53099F700E01FEF29
:1002D0002FEF3FE140E050E0BA0184E00E940601C8
:1002E00000E01FEF2FEF3FE140E050E0BA0185E072
:1002F0000E9406018CE38093DC001092DD00809365
:10030000DE001092DF008AEE8093DB00E8EDF0E083
:10031000808182608083CF911F910F910895CF9348
:10032000DF9300D000D0CDB7DEB7E82FF92F2085BE
:10033000818590E0B0E0A0E0BA2FA92F982F882700
:10034000A22B2285822B9C01AD015865CA01B901FF
:100350000F900F900F900F90DF91CF910895CF9253
:10036000DF92EF92FF920F931F93CF93DF93E82ECC
:10037000F92E1091ED0080E040E050E0BA01ECED84
:10038000F0E016C04F5F5F4F6F4F7F4FA895208101
:1003900030E002C035952795AA95E2F720FF1AC0F4
:1003A0004F3F9FEF590769079FE0790709F455C050
:1003B000A82F082E000CBB0B082F9D012F5F3F4F6D
:1003C000C901817090783323ECF601978E6F9F6F8F
:1003D0000196D8CF4F3F5F4F6F4F7F40F0F50295AA
:1003E000007F0F2EFDEECF2ED12CF02DF6010083D5
:1003F000CFEED0E088818F738883EEEEF0E08081CD
:100400008F7B8083888180638883E0EFF0E0808148
:1004100084608083C7010E948F010E946A008881E6
:10042000807F8883888188608883F6018081807FCF
:100430008083F701E7012896AAEFB0E081918C93C1
:10044000EC17FD07D9F7EFEEF0E080818F73808322
:100450008081806480831093ED00DF91CF911F91A4
:100460000F91FF90EF90DF90CF900895CF93DF939F
:10047000CDB7DEB72B970FB6F894DEBF0FBECDBF5A
:1004800091E099836A837B838B87CE0101960E94DA
:10049000AF012B960FB6F894DEBF0FBECDBFDF9134
:1004A000CF910895CF93DF93C82FD92F60E070E0EC
:1004B000CB010E94EB00188619861A86FE01289649
:1004C000AAEFB0E02C912193EC17FD07D9F780E05B
:1004D000DF91CF91089580914C028E3148F4809144
:1004E0004B022BE0829FC001112480509F4F089542
:1004F00090E080E00895EBE4F2E0808190E00196E6
:100500006EE170E00E941D038083ECE4F2E08081E4
:100510008F5F808308951F920F920FB60F92112460
:100520009F92AF92BF92CF92DF92EF92FF920F9382
:100530001F932F933F934F935F936F937F938F936B
:100540009F93AF93BF93CF93DF93EF93FF939090DD
:10055000ED00C2E0D0E000EE10E00F2EFDEECF2E59
:10056000D12CF02D0F2EFEEEEF2EF12CF02D0F2EB4
:10057000FFEEAF2EB12CF02D0EC0F50180818F73F0
:100580008083808180688083F7018081108221963A
:10059000C630D10511F1F801808191818C739927C2
:1005A000892BD9F0F801808191810C2E02C096959B
:1005B00087950A94E2F780FFEACF8C2F8295807F9F
:1005C000F6018083F701808185FFDECF0E946B02F8
:1005D000892B99F20E947B02D0CF8FE78093DA00BB
:1005E0009092ED00FF91EF91DF91CF91BF91AF918C
:1005F0009F918F917F916F915F914F913F912F913B
:100600001F910F91FF90EF90DF90CF90BF90AF9030
:100610009F900F900FBE0F901F901895F8940E9416
:1006200044017894A89565E470E081E890E00E9428
:10063000360283B78E7F83BFF5CF97FB072E16F464
:10064000009407D077FD09D00E94310307FC05D044
:100650003EF4909581959F4F0895709561957F4FD9
:100660000895AA1BBB1B51E107C0AA1FBB1FA617F9
:10067000B70710F0A61BB70B881F991F5A95A9F74B
:0E06800080959095BC01CD010895F894FFCFB0
:00000001FF
